:0400000075EF0DF09B
:101000000001000A006400E803102747414E484FE2
:10101000204D43503A2025750D0A00534552494151
:101020004C2D4F4B0D0A002564207C2025640D0AB1
:1010300000008182819282A603D0016A012A01D038
:10104000016A1F5001101F6E2050206ED8901F346F
:101050001F6E2034206E8182819282A603D0016AA5
:10106000012A01D0016A1F5001101F6E2050206E0E
:10107000D8901F341F6E2034206E8182819282A608
:1010800003D0016A012A01D0016A1F5001101F6EAE
:101090002050206ED8901F341F6E2034206E818225
:1010A000819282A603D0016A012A01D0016A1F50F1
:1010B00001101F6E2050206ED8901F341F6E2034F8
:1010C000206E8182819282A603D0016A012A01D01A
:1010D000016A1F5001101F6E2050206ED8901F34DF
:1010E0001F6E2034206E8182819282A603D0016A15
:1010F000012A01D0016A1F5001101F6E2050206E7E
:10110000D8901F341F6E2034206E8182819282A677
:1011100003D0016A012A01D0016A1F5001101F6E1D
:101120002050206ED8901F341F6E2034206E818294
:10113000819282A603D0016A012A01D0016A1F5060
:1011400001101F6E2050206ED8901F341F6E203467
:10115000206E8182819282A603D0016A012A01D089
:10116000016A1F5001101F6E2050206ED8901F344E
:101170001F6E2034206E8182819282A603D0016A84
:10118000012A01D0016A1F5001101F6E2050206EED
:10119000D8901F341F6E2034206E8182819282A6E7
:1011A00003D0016A012A01D0016A1F5001101F6E8D
:1011B0002050206ED8901F341F6E2034206E818204
:1011C000819282A603D0016A012A01D0016A1F50D0
:1011D00001101F6E2050206ED8901F341F6E2034D7
:1011E000206E8182819282A603D0016A012A01D0F9
:1011F000016A1F5001101F6E2050206ED8901F34BE
:101200001F6E2034206E8182819282A603D0016AF3
:10121000012A01D0016A1F5001101F6E2050206E5C
:10122000D8901F341F6E2034206E8182819282A656
:1012300003D0016A012A01D0016A1F5001101F6EFC
:101240002050206ED8901F341F6E2034206E818273
:10125000819282A603D0016A012A01D0016A1F503F
:1012600001101F6E2050206E8182819282A603D0D1
:10127000016A012A01D0016A21500110216E225019
:10128000226ED8902134216E2234226E8182819286
:1012900082A603D0016A012A01D0016A21500110FF
:1012A000216E2250226ED8902134216E2234226E7B
:1012B0008182819282A603D0016A012A01D0016A4B
:1012C00021500110216E2250226ED8902134216EBF
:1012D0002234226E8182819282A603D0016A012A81
:1012E00001D0016A21500110216E2250226ED89047
:1012F0002134216E2234226E8182819282A603D013
:10130000016A012A01D0016A21500110216E225088
:10131000226ED8902134216E2234226E81828192F5
:1013200082A603D0016A012A01D0016A215001106E
:10133000216E2250226ED8902134216E2234226EEA
:101340008182819282A603D0016A012A01D0016ABA
:1013500021500110216E2250226ED8902134216E2E
:101360002234226E8182819282A603D0016A012AF0
:1013700001D0016A21500110216E2250226ED890B6
:101380002134216E2234226E8182819282A603D082
:10139000016A012A01D0016A21500110216E2250F8
:1013A000226ED8902134216E2234226E8182819265
:1013B00082A603D0016A012A01D0016A21500110DE
:1013C000216E2250226ED8902134216E2234226E5A
:1013D0008182819282A603D0016A012A01D0016A2A
:1013E00021500110216E2250226ED8902134216E9E
:1013F0002234226E8182819282A603D0016A012A60
:1014000001D0016A21500110216E2250226ED89025
:101410002134216E2234226E8182819282A603D0F1
:10142000016A012A01D0016A21500110216E225067
:10143000226ED8902134216E2234226E81828192D4
:1014400082A603D0016A012A01D0016A215001104D
:10145000216E2250226ED8902134216E2234226EC9
:101460008182819282A603D0016A012A01D0016A99
:1014700021500110216E2250226ED8902134216E0D
:101480002234226E8182819282A603D0016A012ACF
:1014900001D0016A21500110216E2250226E1200EB
:1014A0000F0E156E000E166E93D0250E1A18D8B4B6
:1014B00004D01A508BEC0DF08BD0000E176E02D0BA
:1014C000178C17D00DC0F6FF0EC0F7FF0D4A0E2A7D
:1014D0000800F5CF1AF01A50000AD8B41200640AB6
:1014E000D8B407D00D0AD8B404D01C0AD8B4E8D7B1
:1014F0006FD017BC15D015C0D9FF16C0DAFFDECFEC
:1015000018F0DDCF19F0020E1526000E162219AEC6
:1015100013D0030E1712186C191ED8B0192A0CD04C
:1015200015C0D9FF16C0DAFFDECF18F0DDCF19F0F5
:10153000020E1526000E1622010E1A6E050E1A183E
:10154000D8B412D01A50020D010EF324F66E100E0C
:10155000F420F76E0900F550185C0900F550195891
:10156000D8A002D01A2AEAD717C013F0030E131618
:10157000D8B403D02D0E8BEC0DF01AC014F024D08B
:101580001450020D010EF324F66E100EF420F76EC7
:101590000900F5CF03F00A00F5CF04F018C001F000
:1015A00019C002F005EC0DF001C008F002C009F00E
:1015B000000E0B6E0A0E0A6E54EC0DF00850300F40
:1015C0001A6E1A508BEC0DF014061428D8A4D8D734
:1015D0000DC0F6FF0EC0F7FF0D4A0E2A0800F5CF2A
:1015E0001AF01A50D8B4120060D7900EAB6E1304E4
:1015F0001410D8A433D0240EAC6E0FC005F010C068
:1016000006F011C007F012C008F0000E016E6C0E5B
:10161000026EDC0E036E020E046E69EC0BF0F00E2F
:101620000124176EFF0E0220186EFF0E0320196EA4
:10163000FF0E04201A6E17C001F018C002F019C086
:1016400003F01AC004F0100E056E000E066E000EB8
:10165000076E000E086E69EC0BF032D0200EAC6EF7
:101660000FC005F010C006F011C007F012C008F05E
:10167000000E016E6C0E026EDC0E036E020E046E26
:1016800069EC0BF0C00E0124176EFF0E0220186EDD
:10169000FF0E0320196EFF0E04201A6E17C001F012
:1016A00018C002F019C003F01AC004F0400E056E15
:1016B000000E066E000E076E000E086E69EC0BF051
:1016C00001C015F002C016F015C0AFFF9D8A9D98AD
:1016D0001200000E0A6E08AE0AD0081E071E061E73
:1016E000056C000E062207220822010E0A6E04AEC7
:1016F0000AD0041E031E021E016C000E02220322E9
:101700000422010E0A1A000E0B6E000E0C6E000E63
:101710000D6E000E0E6E0550061007100810D8B49E
:101720002AD0010E096E06D0D89005360636073647
:101730000836092A08AEF8D7D8900B360C360D3685
:101740000E360550015C06500258075003580850E9
:101750000458D8A009D00550015E0650025A07501F
:10176000035A0850045A0B80D890083207320632C8
:101770000532092EE1D70A50D8B408D00E1E0D1E2E
:101780000C1E0B6C000E0C220D220E220BC001F061
:101790000CC002F00DC003F00EC004F012002CECDF
:1017A0000CF082988C0E026E0D0E036E980E046E75
:1017B0000B0E056E000E076EFA0E066ECAEC0CF0EC
:1017C000240E0D6E100E0E6E50EC0AF0000E246EFC
:1017D000000E236E245027E1FA0E235CD8B023D0EC
:1017E000270E0D6E100E0E6ED8902334D96E243451
:1017F000DA6E8C0ED9260D0EDA22DECF0FF0DDCF99
:1018000010F0D8902334D96E2434DA6E980ED9268D
:101810000B0EDA22DECF11F0DDCF12F050EC0AF021
:10182000234A242AD7D7040E1E6E0C0E1D6E340ECA
:10183000E82EFED71D2EFCD71E2EFAD782883A0E30
:101840001E6ED60E1D6E090EE82EFED71D2EFCD77D
:101850001E2EFAD700F0A5D7000ED16EF19E000E15
:101860000F6EC20E106E010E116E000E126E000E83
:10187000146E010E136EF5EC0AF094988288000E37
:10188000246E000E236E245021E1030E235CD8B099
:101890001DD082980A0E1C6E220E1B6EA10EE82E21
:1018A000FED71B2EFCD71C2EFAD700F082880A0E1A
:1018B0001C6E220E1B6EA10EE82EFED71B2EFCD72F
:1018C0001C2EFAD700F0234A242ADDD71B0E0D6EFA
:1018D000100E0E6E50EC0AF0020E2EEC0DF0AC0E57
:1018E0007FEC0CF00B0E0D6E100E0E6E91EC0DF0E9
:1018F0001B6E1B500F6E106A50EC0AF01200016E46
:1019000093909394948693929396819081868192FA
:10191000A40E0118D8A41DD0818081968192818463
:10192000818281928194818281928184818281925B
:101930008194818281928194818281928184818249
:101940008192819481828192819481828192818627
:101950001200AC0E0118D8A41200818081968192E9
:101960008184818281928194818281928184818229
:101970008192819481828192818481828192818409
:1019800081828192819481828192819481828192EB
:1019900081861200000E096E000E086E2FD081960F
:1019A00082A609D02680000E226E000E216E000E47
:1019B000206E000E1F6E82A626A020D019EC08F023
:1019C0008186D8900834D96E0934DA6E0250D9264F
:1019D0000350DA2221C0DEFF22C0DDFFD890083498
:1019E000D96E0934DA6E0450D9260550DA221FC0A8
:1019F000DEFF20C0DDFF084A092A26900650085C59
:101A000007500958D8B01200CAD7000E066E000E53
:101A1000056E03500410D8B41CD0010E076E04D01C
:101A2000D89003360436072A04AEFAD7D890053684
:101A300006360350015C04500258D8A005D003506C
:101A4000015E0450025A0580D89004320332072EFA
:101A5000EDD705C001F006C002F01200016E939AA6
:101A6000939814D0819A8198000E256E1200818A75
:101A70008198010E256E1200819A8188020E256ED2
:101A80001200818A8188030E256E12000150000A1F
:101A9000D8B4E8D7010AD8B4EAD7030AD8B4ECD747
:101AA000010AD8A41200EDD70A500B10D8B418D0F0
:101AB000010E0C6E04D0D8900A360B360C2A0BAEF1
:101AC000FAD70A50085C0B500958D8A004D00A5025
:101AD000085E0B50095AD8900B320A320C2EF1D7FF
:101AE00008C008F009C009F012000BEE98F013EEE0
:101AF000E8F0EE6AE550E150FCE1E250FAE1266AD6
:101B000000EE1FF0070EEE6AE806FDE1000EF86E2B
:101B10000001CFEF0BF0016E9EA8FED701C0ADFF14
:061B200012002550120026
:020000040020DA
:08000000FFFFFFFFFFFFFFFF00
:020000040030CA
:0E000000FF061812FF8181FF0FC00FE00F40B6
:00000001FF
